:1000000003308A001D2B0000FF00030E8301A500B2
:100010007F08A4000A08AB008A01A40E0408A60009
:100020002008A7002108A8002208A9002308AA0088
:10003000831383128C308400001C20280C183D2868
:100040008C308400801C26288C183F288C3084003B
:10005000001D2C280C194128260884002708A00020
:100060002808A1002908A2002A08A3002B088A005A
:10007000250E8300FF0E7F0E09008A11DB288A11EE
:100080007D288A11CF280A108A100A11820713349A
:100090001534173419341B341D341F3421342334E0
:1000A0002534273429342A342C342E343034323455
:1000B0003434363438343A343C343E3440344234C8
:1000C0000A108A100A11820788347C34703458343C
:1000D00040344C341034343428341C341034043458
:1000E000F834EC34E034D434C834BC34B034A03404
:1000F00098348C34803474346434361DC328FD3015
:100100003407B2003508B300073003180830B307CE
:1001100033083502031CBD28031D9228340832021F
:100120000318BD288F018E013618AA28831686125F
:100130008312861283160613831206170A3097005D
:1001400037084320A100960037086020A1009500E1
:100150003614BD28831606138312061383168612DF
:10016000831286160A30970037084320A1009600B4
:1001700037086020A100950036103308B50032081A
:10018000B4008C10CC288316061383120613831632
:1001900086128312861297018C108A112C288316DE
:1001A0000613831206138316861283128612970192
:1001B0000C118A112C280C108A112C288316061376
:1001C0008312061383168612831286128316051075
:1001D00083120510831685108312851083168711EC
:1001E000831287118316071383120713831686134E
:1001F000831286138A113B2B42308400831300083C
:1002000003190F290230A100A001A00B0529A10BA1
:1002100004299730A000A00B0B29800B02290800AD
:100220001030C500A001A301C20CC10C031C1E2983
:100230004308A0070318A30A4408A307A30CA00CB3
:10024000A20CA10CC50B142908008E30A000420896
:10025000A1004108A200A301A108031D3929220819
:10026000A100A2010830A002A108031D3929A001A4
:1002700041290310A11B4029A20DA10DA00339297A
:10028000A11308000830A1001F08C33921049F00F2
:100290006430C200FC209F149F184C2983161E084E
:1002A0008312AC001E08AD002D08C2002C08C1004E
:1002B000C4010530C30010212208C200A301220C92
:1002C000A200A20C3F30A2052208C1002308C200F0
:1002D00025212308BC002208BB002108BA00200801
:1002E000B9003C08C4003B08C3003A08C200390802
:1002F000C100CD30C800CC30C7006C30C6008030A3
:10030000C50041080319F129C90045080319F1295D
:10031000C907031892297F30C902031CF129031968
:10032000F12996298130C9070318F1294908A0004D
:10033000A101A201A3014208CD00CD174308CC00C2
:100340004408CB001830C900CA014B1CBF2948081B
:10035000A307031CB129A20A031DB129A10A03198D
:10036000CA174708A207031CB829A10A0319CA170C
:100370004608C300C3174308A1070318CA17CA0DCC
:10038000A10CA20CA30CCD0CCC0CCB0C0310C90BF4
:10039000A4290130A0070318F129A11BD629CD0DEE
:1003A000A30DA20DA10DA0030319F129CD1FE7296B
:1003B000A30A031DE729A20A031DE729A10A031DB9
:1003C000E729A10CA20CA30CA00A0319F1294208E9
:1003D000CA004608CA06CA1FEF29A117F529A113AA
:1003E000F529A001A101A201A3012308BC00220854
:1003F000BB002108BA002008B9006430C200FC200C
:100400000C30A1001F08C33921049F006430C200D2
:10041000FC209F149F180A2A83161E088312AE0020
:100420001E08AF006430C200FC201030A1001F087D
:10043000C33921049F006430C200FC209F149F1820
:100440001F2A83161E088312B0001E08B10031084F
:10045000C2003008C100C4010530C30010212208C9
:10046000C200A301220CA200A20C3F30A205220868
:10047000C1002308C20025212308C0002208BF00B4
:100480002108BE002008BD006430C200FC208A1193
:10049000682B361D4D2A85144E2A8510380B522A9A
:1004A0000514532A05103C08C4003B08C3003A0851
:1004B000C2003908C100C801C7013030C60082300F
:1004C000C5004208C9004608C906C91F6C2A0311A5
:1004D0000310C21B03149F2A4208C9004508CA0022
:1004E0004108CA0203197A2AC91F9F2A0308013A40
:1004F00083009F2A4608CA004208CA020319862AB6
:10050000C91F9F2A0308013A83009F2A4708CA008F
:100510004308CA020319922AC91F9F2A0308013AF5
:1005200083009F2A4808CA004408CA0203199E2A69
:10053000C91F9F2A0308013A83009F2A0310031C46
:10054000AD2A8715361107170830C100FA30C200EE
:10055000FC20C10BA62A0713AF2A871107138A11A3
:10056000692B831606168312061AC42AB618C42AE3
:10057000B808031DC42A6430C200FC208316061686
:100580008312061E3615CE2A6430C200FC20831664
:1005900006168312061ECE2A3611B6108A116A2B51
:1005A000831607168312071EE12A6430C200FC205E
:1005B000831607168312071EE02A0130B800361191
:1005C000E92A6430C200FC20831607168312071E36
:1005D000B8018A116B2B831687168312871EFB2A9C
:1005E000361107170C30C100FA30C200FC20C10BD5
:1005F000F42A0713B6148A116C2B380B092B361109
:100600000430C100FA30C200FC20C10B022B861757
:100610000A2B86138A116D2B2F08013C031C182B03
:10062000B70A3708183C0318172B1830B7001B2BD4
:10063000B708031DB7038A11702B03081F39830005
:10064000713083168F000F088312B701B8010317AA
:100650001F109F101F119F1103131F13003003174A
:100660009E0099019A0183169E0183129B01031338
:100670008D128313DE283611B701B61003171F1031
:100680009F101F119F1103131F131C3003179E008F
:10069000831603131F169F161F1383129F171F1411
:1006A0000030A1001F08C33921049F000030A100C1
:1006B000053892009F308316920005308312900017
:1006C00083160C148C140C15C03083128B04422931
:1006D000492AB12AD02AEB2AFD2A361D712B0C2B70
:0806E000722BB701672B6300C8
:02400E00E43F8D
:00000001FF
;PIC16F690
;CRC=C5B0  CREATED="19-Nov-19 16:47"
